:020000022000DC
:1030000000000120A5C10200CDC10200CFC1020015
:10301000D1C10200D3C10200D5C1020000000000EE
:10302000000000000000000000000000D7C1020006
:10303000D9C1020000000000DBC10200DDC10200B6
:1030400061DB0200DFC10200BDD7020045D30200F0
:10305000DFC10200DFC10200E94E0200DFC1020051
:10306000DFC1020031540200DFC10200DFC10200F3
:10307000DFC10200DFC10200DFC10200DFC10200C8
:10308000DFC10200053E0200DFC10200DFC1020015
:10309000A53E0200DFC10200E9E50200DFC1020037
:1030A000DFC10200DFC10200DFC10200DFC1020098
:1030B000DFC10200DFC102000000000000000000CC
:1030C000DFC10200DFC10200DFC10200DFC1020078
:1030D000DFC10200DFC10200DFC10200000000000A
:1030E00000000000000000000000000000000000E0
:1030F00000000000000000000000000000000000D0
:1031000000000000000000000000000000000000BF
:1031100000000000000000000000000000000000AF
:10312000000000000000000000000000000000009F
:10313000000000000000000000000000000000008F
:10314000000000000000000000000000000000007F
:10315000000000000000000000000000000000006F
:10316000000000000000000000000000000000005F
:10317000000000000000000000000000000000004F
:10318000000000000000000000000000000000003F
:10319000000000000000000000000000000000002F
:1031A000000000000000000000000000000000001F
:1031B000000000000000000000000000000000000F
:1031C00000000000000000000000000000000000FF
:1031D00000000000000000000000000000000000EF
:1031E00000000000000000000000000000000000DF
:1031F00000000000000000000000000000000000CF
:1032000010B5054C237833B9044B13B10448AFF320
:1032100000800123237010BD142400200000000052
:1032200078ED020008B5034B1BB103490348AFF327
:10323000008008BD000000001824002078ED020086
:10324000154B002B08BF134B9D46A3F5803A002178
:103250008B460F461348144A121A0BF0EEFA0F4B26
:10326000002B00D098470E4B002B00D09847002031
:10327000002104000D000D48002802D00C48AFF3D7
:1032800000800BF08BFA2000290007F0F5FD0BF011
:1032900071FA00BF000008000000012000000000DB
:1032A0000000000014240020B82D002000000000C1
:1032B000000000002DE9F0477F4C002384B0C4F8E3
:1032C0001834BFF34F8FD4E9017607EA0601CB1C0F
:1032D00004EB830214F8233098073D460FD113887E
:1032E00052889B0903EB921301331D4406EA050142
:1032F000CB1C04EB830214F823309B07EFD004EBC4
:1033000081016A1CCB680193324004EB820203F016
:103310000303D2680292022B05F102080FD0012BA1
:1033200070D0032B06D02068C01B18BF012004B04A
:10333000BDE8F087D4F818040028F4D1F7E7BDF809
:1033400006305E484FEA93194D46502D28BF502550
:1033500065F38F1305F10801ADF8063001F096FA18
:10336000074600284CD026EA080A0AF1010A01F0B3
:10337000CFFA4FEA8A0A0023082201A9384601F051
:10338000FFFA554540F28B80EBB2BAF1000F7FD0C7
:1033900006EA0801A3EB0A03033104EB8101DDB265
:1033A00052460823384601F0EBFA2A460AF1080390
:1033B0004349384601F0E4FA09F1030908EB990999
:1033C000D4F81834002B5ED1D4F8105455B16B7A70
:1033D00028463946002B52D02B681B6898476D68E9
:1033E000002DF4D1384601F0A3FA002001F0E6F9EF
:1033F000D4F818340BB9C4F80490002001F0E6F9B1
:10340000676890E7BDF804302C48C3F383110629A0
:1034100028BF062161F3891302318900ADF8043019
:1034200001F034FA07460028EAD001F071FA0023CF
:10343000082201A9384601F0A3FABDF8043013F4BC
:10344000707F37D06FF0010AAAEB050A082506EA5B
:10345000080103312B46042204EB8101384601F0B8
:103460008FFABDF8043008F101090AEB0902C3F331
:1034700083139A42C84605F10405E8D3A0E76D68B6
:10348000002DA4D1AEE7384601F052FA67684AE74A
:103490002A4608230A49384601F072FA8CE706EA00
:1034A0000801033104EB81012A460823384601F064
:1034B00067FA81E7C14683E73024002090E80200E4
:1034C0003C24002008B50E4B0E480022FF21C3F813
:1034D00018249960C3E90022C3F8142483F81C243B
:1034E00001F0D2F958B90849084BC91AC90806D0E1
:1034F000074A034622F80C3B01339942FAD108BD32
:103500003024002090E8020004EE0200A4ED020046
:103510008423002021B9134A02EBC00000687047E1
:1035200030B411490F4C091BC90816D00F4B5A88EB
:10353000824218BF002205D111E0DD89854203F1E6
:103540000C0305D001329142F7D1002030BC704706
:1035500004EBC200006830BC70470846F6E720461E
:10356000F8E700BFA4ED020004EE0200842300206F
:10357000094B013903EBC00003290BD8DFE801F048
:1035800002080604022070474079704700797047AE
:103590000420704700207047A4ED02002DE9F04F91
:1035A000604C89B0A368029000200193039101F060
:1035B00005F9D4E901E0D4F8008000EB0E030133F3
:1035C000A3EB0803032B61D800F1010AAAEB080A58
:1035D00004F5836C04F2144600EA0E090125002765
:1035E0005CE8003F43EA05024CE8002191F0000F3F
:1035F000F6D156E8003F43EA050246E8002191F083
:10360000000FF6D109F1030304EB830114F8233012
:103610009B07CB46724610D10B8849889B0903EB68
:10362000911301331A4400EA020B0BF1030304EB7C
:10363000830114F823309B07EED004EB8B0B02328E
:10364000DBF80C30059303F00303012B64D0022B4D
:1036500005D1BDF816309B09033302EB930256E8FF
:10366000003F03EA070146E8001B9BF0000FF6D17C
:1036700043B10AEB0203032B626007D8964600EAC7
:103680000209ADE70AEB0E03032BA9D908EA0000F3
:10369000033008F1020214F8203043F0030304F869
:1036A00020300020226001F091F8019A029908F17F
:1036B0000103134004EB830302EA080808F103083E
:1036C0000A0CDA6014F828300A0962F3820361F305
:1036D000C50304F8283034F82830039A6FF38913AF
:1036E00024F8283054F8283062F39F231A46012129
:1036F00061F3010244F8283004F8282094F81C34BF
:103700001BB906E0FFF7D6FD18B1D4E900329A42A2
:10371000F8D109B0BDE8F08FBDF81430C3F38313BE
:103720001A449CE7302400202DE9F04F644C89B006
:10373000A368019000200093CDE9021201F03EF849
:10374000D4E901E0D4F8008000EB0E030133A3EBD1
:103750000803042B61D800F1010AAAEB080A04F55A
:10376000836C04F2144600EA0E09012500275CE888
:10377000003F43EA05024CE8002191F0000FF6D12A
:1037800056E8003F43EA050246E8002191F0000FA9
:10379000F6D109F1030304EB830114F823309B07EE
:1037A000CB46724610D10B8849889B0903EB9113D5
:1037B00001331A4400EA020B0BF1030304EB83010B
:1037C00014F823309B07EED004EB8B0B0232DBF8AE
:1037D0000C30059303F00303012B6BD0022B05D1B2
:1037E000BDF816309B09033302EB930256E8003F05
:1037F00003EA070146E8001B9BF0000FF6D143B136
:103800000AEB0203042B626007D8964600EA02091D
:10381000ADE70AEB0E03042BA9D908EA0000033038
:1038200008F1030214F8203043F0030304F82030B9
:103830000020226000F0CAFF00990198039D08F162
:10384000020208F101030A400B4004EB820204EB80
:10385000830301EA080808F10308010CD560D96068
:1038600014F82830020962F3820360F3C50304F8F8
:10387000283034F82830029A012161F3891324F8A2
:10388000283054F8283062F39F231A4661F301026E
:1038900044F8283004F8282094F81C341BB906E0BA
:1038A000FFF708FD18B1D4E900329A42F8D109B007
:1038B000BDE8F08FBDF81430C3F383131A4495E7C5
:1038C000302400202DE9F04F694C8BB0CDE9031274
:1038D000029005930020A368019300F06FFFD4E9E4
:1038E00001E0D4F8008000EB0E030133A3EB0803E2
:1038F000052B61D800F1010AAAEB080A04F5836CD4
:1039000004F2144600EA0E09012500275CE8003F96
:1039100043EA05024CE8002191F0000FF6D156E889
:10392000003F43EA050246E8002191F0000FF6D17E
:1039300009F1030304EB830114F823309B07CB4602
:10394000724610D10B8849889B0903EB9113013310
:103950001A4400EA020B0BF1030304EB830114F891
:1039600023309B07EED004EB8B0B0232DBF80C30DC
:10397000079303F00303012B73D0022B05D1BDF88D
:103980001E309B09033302EB930256E8003F03EA23
:10399000070146E8001B9BF0000FF6D143B10AEB8C
:1039A0000203052B626007D8964600EA0209ADE7DC
:1039B0000AEB0E03052BA9D908EA0000033008F131
:1039C000040214F8203043F0030304F820300020F0
:1039D000226000F0FBFE0198029D049E08F10201A6
:1039E00008F1030208F1010301400240034004EB27
:1039F000810104EB820204EB830300EA0808CE6035
:103A000008F103080599D160280CD86014F8283013
:103A10002A0962F3820365F3C50304F8283034F8F9
:103A20002830022262F3891324F82830039A54F8CC
:103A3000283062F39F231A46012161F3010244F802
:103A4000283004F8282094F81C341BB906E0FFF74E
:103A500031FC18B1D4E900329A42F8D10BB0BDE87C
:103A6000F08FBDF81C30C3F383131A448DE700BFF9
:103A700030240020044BD3E900239A4201D0FFF701
:103A800019BC0020704700BF3024002030B4154D11
:103A9000D5F81044002154B1237A8B4213D0234629
:103AA00002E01A7A8A420ED05B68002BF9D10172CB
:103AB000D5F810347BB15B684360D5F8103458609A
:103AC00030BC0846704701310A29E4D14FF0FF317C
:103AD000084630BC7047C5F81004436030BC084647
:103AE000704700BF3024002038B5084BD3F810448D
:103AF000012583F81C543CB12368657220465B683D
:103B000098476468002CF7D138BD00BF30240020EE
:103B1000044B195C4FF0A04201238B40C2F80C35D6
:103B2000704700BFA8E80200044B195C4FF0A042A8
:103B300001238B40C2F80835704700BFA8E8020097
:103B400030B44FF0A04303224FF400354FF48024EB
:103B50004FF400204FF48011C3F84427C3F84827DE
:103B6000C3F84C27C3F85027C3F80855C3F80845D5
:103B7000C3F80805C3F8081530BC704770B5084D88
:103B80002B785BB1074E00243368012113F8340011
:103B900001F016F92B780134A342F5D8002070BD4E
:103BA000202900204429002070B5094D2B7853B1FD
:103BB000084E0024336813F8340001F063F92B78C1
:103BC0000134A342F6D80448BDE8704000F0C2BDFD
:103BD00020290020442900202429002000B585B098
:103BE00000230390194601AA44F20100ADF8043005
:103BF000029300F003F805B05DF804FB10B5FFF781
:103C000073FFFFF737FF0028FBD1104C10492088C5
:103C1000000440F00100FFF7C1FC0E4B1B68DB07FE
:103C200000D5FFDE20880C49000440F00200FFF7B9
:103C3000B5FCBFF34F8F0949094BCA6802F4E06233
:103C40001343CB60BFF34F8F00BFFDE784230020F9
:103C5000ACE80200F0ED00E0B8E8020000ED00E0A2
:103C60000400FA05F0B412F0030412D14B1CDB007F
:103C70000A4D0B4E0B4F34709BB213442B600A4E0F
:103C80000A4D0B4B28803A60347019802046F0BCF6
:103C9000704707242046F0BC704700BF4C29002025
:103CA00048290020502900205829002054290020AC
:103CB000562900202DE9F047294F3B888B4235D308
:103CC0000546002016460C4600F078FD254B264A96
:103CD0002648197813780088DBB2834238BF013355
:103CE000C9B234BFDBB20023994222D092F80080DF
:103CF0001378DFF88090DBB2984286BF0133DBB2E5
:103D000000235FFA88F80020137000F05FFDD9F8F7
:103D100000300FFA88F24FEAC20A43F83260534487
:103D200005B164B900209880BDE8F0870920BDE89E
:103D3000F087002000F04AFD0420BDE8F0870C4B1E
:103D400038881B68294608FB003022460AF06AFDC5
:103D5000D9F800309A440020AAF80440E4E700BFF4
:103D600054290020582900204829002056290020E5
:103D70004C290020502900202DE9F84F1B4C1C4DE8
:103D800022782B789A4226D0DFF86CA0DFF86C906E
:103D9000184FDFF86CB04FF000082378DAF80020F5
:103DA0003888D9F80060DBB20FFA83FE02EBCE014F
:103DB00003FB0060898852F83E3098472378BBF8AF
:103DC0000010DBB25A1C9942D2B206D92270237875
:103DD0002A789A42E1D1BDE8F88F84F800802278F1
:103DE0002B789A42D9D1BDE8F88F00BF582900201E
:103DF0004829002054290020502900204C29002067
:103E000056290020F8B5204A204B0024C2F8404132
:103E1000C2F84441C2F84841C2F84C41C2F80041DE
:103E2000C2F804411B6833B31949D2F804550A6833
:103E3000AD1A1A6825F07F45AA4227460DD8197C8D
:103E4000DE69AD1A144419B11F74D3E905209047F7
:103E50001EB133461A68AA42F1D90E490E4A0B78B0
:103E600012789A4208D00D490D4A41F823404FF488
:103E70008013C2F80031F8BD531CDBB2022B08BF1F
:103E800000230B70EFE700BF001001407C2A0020E8
:103E9000782A0020752A0020742A00206C2A00202D
:103EA00000E100E02DE9F04FAF48B04AB049137887
:103EB0000978D0F80090AF4889B000680290994224
:103EC00000F04E810133DBB2022B08BF00231370D8
:103ED000A94A52F82300A44B09EB000727F07F47BB
:103EE0001F60029B00252A462C46AC46B3B11968D8
:103EF000814200F24D81DD68C3F800C0401A0C44D5
:103F0000D9693DB109EB040626F07F46C3E9016596
:103F1000DA611A460B460125002BE8D1002D40F04E
:103F20009B81012302990693B946944B944C1B78CC
:103F300005934FF000084B46CDF81C80CDF80C805F
:103F40004FF0010EC1468C469B4642B3D2E9016553
:103F50001346D2698B48A6EB0B0121F07F418142C9
:103F600059D829441960002083F810E0C3E9010002
:103F7000D861BCF1000F72D0DCF8000088425FD23B
:103F8000664603E02868884263D22E46F569091A1E
:103F9000002DF7D11960DD61F361002AD6D1CA4640
:103FA000CDF804B094F8019021784FF0000B16463C
:103FB000894576D0084600EB400004EBC0004A1C5F
:103FC000A378D1B2027921708B4204BF84F800B08B
:103FD0000021022A836853D0032A44D0012AE7D162
:103FE0001F7C002FE4D13246C6685E6005699D6083
:103FF0004169D960816999610599DDF804B0D146BC
:104000000029A7D03E46A6EB0B015E485F6021F079
:104010007F418142A5D9ABEB060121F07F41A94246
:1040200002D2691A19609EE7002183F810E0C3E903
:1040300000119960D961BCF1000F10D0DCF80000CC
:10404000411ACCF800104FF00108C3F81CC09C4680
:104050007BE7401A28601960DD61F3619DE79C46AB
:104060004FF0010871E7BCF1000FA1D062460023B8
:104070001374D269002AFBD194464FF0010891E7EE
:10408000BCF1000F09D06345624603D192E0834240
:104090004FD00246D0690028F9D183F810B0894585
:1040A00088D1C346DDF80490D046BBF1000F40F044
:1040B000D780079B002B40F01A82B8F1000F03D085
:1040C0002E4B9DF814201A702A4B1A68039B1BB9BB
:1040D000029B9A4200F0C880002A00F0CC802A4857
:1040E000214BD0F804151B68284C15682678CA1A8D
:1040F00022F07F420332002E00F0A68195422CBFB1
:104100005B199B18204823F07F43C0F84035D0F856
:104110000425521A5B1A22F07F4223F07F430332B8
:104120009A4200F24781154A0023137009B0BDE896
:10413000F08F934236D0674604931D46E8692D6898
:10414000D06128B102682A440260217894F8019075
:104150006745A2D00122BC46039283F810B09EE7C7
:10416000002206920146E0E6782A0020742A002008
:10417000752A00207C2A00206C2A0020682A002052
:104180005C290020FEFF7F0000100140692A00200A
:10419000002D40F0B081091A19600123B946069339
:1041A0000299C2E60493DCF81C7037B14FF00108A5
:1041B000049DC3E7CDF810C0F5E77748774DC0F808
:1041C00008E077484FF02F08006800BF00BF00BF2D
:1041D00000BF00BF00BF00BF00BFA8422FD000BF7C
:1041E00000BF00BF00BF00BF00BF00BF00BF00BFD7
:1041F00000BF00BF00BF00BF00BF00BF00BF00BFC7
:1042000000BF00BF00BF00BF00BF00BF00BF00BFB6
:1042100000BF00BF00BF00BF00BF00BF00BF00BFA6
:1042200000BF00BF00BF00BF00BF00BF00BF00BF96
:1042300000BF00BF00BF00BF00BF00BF00BFB8F19C
:104240000108C2D14FF0010A0197CDF814A0CDF8B2
:104250001CA0D046049D71E7524902930B6060E6B2
:10426000504BC3F800C024E7069B002B3FF45BAF24
:10427000002A7FF434AF48494B4B494E474C4FF42A
:1042800080304FF400370125C3F88070C1F848032F
:104290002F23C1F808034D6030681E4600BF00BFE1
:1042A00000BF00BF00BF00BF00BF00BFA0422FD0B3
:1042B00000BF00BF00BF00BF00BF00BF00BF00BF06
:1042C00000BF00BF00BF00BF00BF00BF00BF00BFF6
:1042D00000BF00BF00BF00BF00BF00BF00BF00BFE6
:1042E00000BF00BF00BF00BF00BF00BF00BF00BFD6
:1042F00000BF00BF00BF00BF00BF00BF00BF00BFC6
:1043000000BF00BF00BF00BF00BF00BF00BF00BFB5
:10431000013EC3D18D6025490A6000BF00BF00BFC8
:1043200000BF00BF00BF00BF00BFA0422FD000BF32
:1043300000BF00BF00BF00BF00BF00BF00BF00BF85
:1043400000BF00BF00BF00BF00BF00BF00BF00BF75
:1043500000BF00BF00BF00BF00BF00BF00BF00BF65
:1043600000BF00BF00BF00BF00BF00BF00BF00BF55
:1043700000BF00BF00BF00BF00BF00BF00BF00BF45
:1043800000BF00BF00BF00BF00BF00BF00BF013BB8
:10439000C3D1074B1A70C6E6001001400024F40098
:1043A000942100207C2A002000E100E0782A0020EF
:1043B000692A0020D0F80435514AC0F84035126807
:1043C00050492F2300BF00BF00BF00BF00BF00BF88
:1043D00000BF00BF8A422FD000BF00BF00BF00BF98
:1043E00000BF00BF00BF00BF00BF00BF00BF00BFD5
:1043F00000BF00BF00BF00BF00BF00BF00BF00BFC5
:1044000000BF00BF00BF00BF00BF00BF00BF00BFB4
:1044100000BF00BF00BF00BF00BF00BF00BF00BFA4
:1044200000BF00BF00BF00BF00BF00BF00BF00BF94
:1044300000BF00BF00BF00BF013BC3D1324B4FF4F0
:104440000032C3F800216EE62F4EDFF8B4E0DFF84B
:10445000B4C04FF48037C0F84473C0F804734FF40D
:104460000037C6F88071376001260660DEF80070FC
:104470002F2000BF00BF00BF00BF00BF00BF00BFB4
:1044800000BF67452FD000BF00BF00BF00BF00BF07
:1044900000BF00BF00BF00BF00BF00BF00BF00BF24
:1044A00000BF00BF00BF00BF00BF00BF00BF00BF14
:1044B00000BF00BF00BF00BF00BF00BF00BF00BF04
:1044C00000BF00BF00BF00BF00BF00BF00BF00BFF4
:1044D00000BF00BF00BF00BF00BF00BF00BF00BFE4
:1044E00000BF00BF00BF0138C3D1267006E6074BEE
:1044F000C3F80090E1E5064C029323604BE600BF51
:10450000942100200024F40000E100E0782A00203B
:104510007C2A0020F0B4554B554A564E564C4FF469
:1045200080304FF400310125C2F88010C3F84803F1
:104530002F21C3F808035D6030680E4600BF00BF3E
:1045400000BF00BF00BF00BF00BF00BFA0422FD010
:1045500000BF00BF00BF00BF00BF00BF00BF00BF63
:1045600000BF00BF00BF00BF00BF00BF00BF00BF53
:1045700000BF00BF00BF00BF00BF00BF00BF00BF43
:1045800000BF00BF00BF00BF00BF00BF00BF00BF33
:1045900000BF00BF00BF00BF00BF00BF00BF00BF23
:1045A00000BF00BF00BF00BF00BF00BF00BF00BF13
:1045B000013EC3D19D6000BF00BF00BF00BF00BF70
:1045C00000BF00BF00BFA0422FD000BF00BF00BF90
:1045D00000BF00BF00BF00BF00BF00BF00BF00BFE3
:1045E00000BF00BF00BF00BF00BF00BF00BF00BFD3
:1045F00000BF00BF00BF00BF00BF00BF00BF00BFC3
:1046000000BF00BF00BF00BF00BF00BF00BF00BFB2
:1046100000BF00BF00BF00BF00BF00BF00BF00BFA2
:1046200000BF00BF00BF00BF00BF0139C3D1134EA0
:10463000134C1449144D154F002030702060087041
:104640004FF480140B26E0212880AE703870104D96
:10465000C2F8804182F814131460C3F8080582F888
:104660001113D3F804352B60F0BC704700100140E3
:1046700000E100E0942100200024F400692A0020D9
:104680007C2A0020742A00205C290020752A002042
:10469000782A0020074B9B784BB132B128B10368D0
:1046A000187C20B959745A61704707207047082058
:1046B000704700BF5C2900202DE9F843224CA37805
:1046C000002B35D0002833D0042934D943697BB37B
:1046D000437C0646012B4FF000000CBF8846804605
:1046E0001746894600F06AF86378A17822785D1C45
:1046F000EDB2A94208BF0025AA421FD003EB430335
:1047000004EBC3030121114A9E601971D2F80425FC
:10471000DA600020C3E904989F61657000F056F8E4
:104720000B4B4FF48012C3F800210020BDE8F88342
:104730000820BDE8F8830720BDE8F883002000F0DA
:1047400045F80420F2E700BF5C290020001001407A
:1047500000E100E070B5174DAB7823B318B343699F
:104760000BB3002404740646204600F027F86A784C
:10477000A8782978531CDBB2984208BF2346994297
:1047800013D002EB420205EBC202022196602046E2
:1047900011716B7000F01AF8074B4FF48012C3F8D8
:1047A0000021204670BD082070BD204600F00EF8A4
:1047B000042070BD5C29002000E100E072B6024ACE
:1047C0001368013313607047802A0020034A13687E
:1047D000013B136003B962B6704700BF802A002016
:1047E000B8B130B4D0E90112521A0468D2B2531EE3
:1047F0002160DBB242B101680A685C1E551C0D6085
:104800001370E3B2FF2BF6D103680020187130BC9F
:1048100070470E20704700BF38B504460020FFF7F0
:10482000CDFFD4E900311A688A4215D9511E1960AA
:104830002168A3680868258A12F8012CE4681B1A0D
:104840000879DBB2984205FB024400D20B710020CC
:10485000FFF7BCFF204638BD0024F8E738B5054611
:1048600000200C46FFF7AAFF2A681368591C116044
:10487000E9682A8A641AB4FBF2F41C700020BDE8CF
:104880003840FFF7A3BF00BFFFF7AABF2DE9F041F3
:10489000058ACE1C043D2E440746B6FBF5F6FFF70D
:1048A000BBFF78B3F6B24FF48073013E0446C58077
:1048B0000760838027D08046002509E06379AE42F7
:1048C00003F101036371C8F80000076080461AD045
:1048D0003846FFF7A1FF01350028EFD16679721E37
:1048E00014D02346013082421B68FBD11F684EB1B1
:1048F000002523682146013538461C46FFF7AEFFE8
:10490000AE42F6D100242046BDE8F0812768EFE7EB
:1049100010B40430012350E8002F02EB030140E8FB
:10492000001494F0000FF6D15DF8044B704700BFFF
:104930000146021DF8B5012052E8004FA4EB000328
:1049400042E8003595F0000FF6D113F0FF0300D0D8
:10495000F8BD4E79701E11D00A4601339842126894
:10496000FBD11768002EF3D000240D6801343846BF
:10497000FFF774FFA6422946F7D1F8BD0F68F3E7A9
:104980002DE9F8430446181DE688B0FBF6F30F4600
:10499000904606FB130013B1013B2468FCD1351A85
:1049A000454528BF4546B8F1000F15D04FF0000926
:1049B0000430A8EB050820442A4607EB090109F05A
:1049C00031FF4645A944246835464FF0000028BF12
:1049D0004546B8F1000FEBD1BDE8F8832DE9F84367
:1049E000C688043304460F46B3FBF6F0904606FB38
:1049F000103110B101382468FCD1751A454528BF23
:104A00004546B8F1000F15D04FF00009043121449C
:104A1000A8EB05082A4607EB090009F003FF464505
:104A2000A944246835464FF0000128BF4546B8F137
:104A3000000FEBD1BDE8F8834901002810B4C9B2DA
:104A4000C3B215DB00F1604202F5614282F8001347
:104A50004009800000F1604000F5614003F01F0252
:104A600001239340C0F8803103605DF8044B704728
:104A7000024A03F00F0422441176E9E7FCEC00E05F
:104A800030B5194C94F8545083B055BB4FF0FF33F8
:104A900007210620C4E90033C4E90233C4E9043322
:104AA000C4E90633C4E90833C4E90A33C4E90C3362
:104AB000C4E90E33C4E91033C4E912332365FFF7A8
:104AC000BBFF0A4B0A4A1D601B68019301984FF017
:104AD00000430121284684F85410C2F8043303B07F
:104AE00030BD082003B030BD842A00207C61004026
:104AF0000060004070B43A4B1A1892F9304001340B
:104B000037D18C78E4B11A6801325ED05A6801322C
:104B10005DD09A6801325CD0DA68013253D01A69EC
:104B2000013258D05A69013257D09A69013223D0E4
:104B3000DA69013208BF07221FD0042070BC704719
:104B4000FE2382F830304A780123012A4FF0A04238
:104B500003FA00F30CBFC2F80835C2F80C3500F5B3
:104B6000E0704FF0A043032243F82020002070BCE7
:104B70007047082070BC70470622940004F18044FE
:104B800004F5C0441D18002643F8226085F8302043
:104B9000D4F810350A784D7823F4981323F4F85399
:104BA00012042D05C4F8103505F4801502F44032C6
:104BB00003022A4303F4F853D4F8105513432B434C
:104BC000C4F81035BFE70322D7E70022D5E701225A
:104BD000D3E70222D1E70422CFE70522CDE700BFC9
:104BE000842A002001234FF0A04203FA00F0C2F80B
:104BF0000805704701234FF0A04203FA00F0C2F805
:104C00000C0570474FF0A0410122D1F8043502FA9B
:104C100000F020EA03020340C1F80825C1F80C3572
:104C2000704700BFF0B4654B1C1894F93050002D4C
:104C300066DACE78002E5DD11D6A013500F0AD80B8
:104C400009240C2553F8247001375DD004F1010CC0
:104C500053F82C70013700F0AA8004F1020CAC4527
:104C600045D253F82C70013700F0A18004F1030CF9
:104C7000AC453CD253F82C70013700F0988004F119
:104C8000040CAC4533D253F82C70013700F08F8000
:104C900004F1050CAC452AD253F82C70013700F012
:104CA000868004F1060CAC4521D253F82C700137F4
:104CB0007DD004F1070CAC4519D253F82C700137A4
:104CC00075D004F1080CAC4511D253F82C700137A3
:104CD0006DD004F1090CAC4509D253F82C700137A2
:104CE00065D00A34AC4202D2DC6A01340BD0042015
:104CF000F0BC70471D6801355BD001240825A1E791
:104D00000820F0BC70470B241F1865B243F824201C
:104D100087F83050002E46D08A78B2B1820002F176
:104D2000A042D2F8004724F00204C2F80047CA7833
:104D30000978B2B9083D2B44104693F8502042EA56
:104D4000811183F85010F0BC70474C7800F5E07288
:104D50004FF0A046A40046F82240CA780978002AFD
:104D6000E8D0AB0003F1804303F5C0430002D3F861
:104D7000102522F4473222F44072C3F810250904AA
:104D800000F4F850D3F8102501F4403101431143E9
:104D9000C3F810150020F0BC7047082684F8306076
:104DA0001A62354634461C4484F84800B4E7644629
:104DB000AAE700251A6084F83050ADE7842A002065
:104DC00070B42E4D2E1883B096F93030072B1CDDB1
:104DD0002B4493F848309B09032B41D0012B14BF7F
:104DE0004FF440314FF40031800000F1A040D0F882
:104DF000002722F44032C0F80027D0F800370B43D8
:104E0000C0F8003703B070BC7047DAB2072AF9D88F
:104E1000980000F1804000F5C04003F14002D0F856
:104E20001045920092B244F0010402F18042C0F8B1
:104E3000104502F5C04200200190019C106000293D
:104E4000E0D096F9302055F82220002ADAD001224D
:104E50000B4902FA03F3C1F8043303B070BC704786
:104E60004FF0A043D3F81035C34013F0010F0CBF2F
:104E70004FF400314FF44031B6E700BF842A0020E0
:104E800000600040164B034493F93030072B18DCC8
:104E9000DAB2072A14D810B49A0002F1804202F55F
:104EA000C042104CD2F81005012120F0010001FA97
:104EB00003F3C2F81005C4F808335DF8044B7047DB
:104EC0007047800000F1A040D0F8003723F4403351
:104ED000C0F80037D0F80037C0F80037704700BF7F
:104EE000842A0020006000402DE9F04186B00023B4
:104EF000A14A01931668012E00F054811E469F4B73
:104F00001A68012A00F05D819D4B1A68012A00F0A1
:104F10006A819C4B1A68012A00F077819A4B1A68C3
:104F2000012A00F08481994B1A68012A00F09181CE
:104F3000974B1A68012A00F09E81964B1A68012A45
:104F40000CD0954B1B68012B00F0A58116F0FF0FCC
:104F500015D1002E30DB06B0BDE8F0818F4AD2F8C3
:104F600004231706EDD500221A601A6804926033F4
:104F7000049A1B68012B46F0800600F08C81884F54
:104F800000240125A30003F18043354203F5C0430B
:104F90004FEA45050BD0D3F8100557F82420D3F875
:104FA0001015C0F30420C1F3014102B19047013450
:104FB000082CE7D1002ECEDA00224FF0FF33CDE9E6
:104FC0000223774C012602AF94F950305D1C2CD09F
:104FD000DBB223F0C00006AA4FEAD00C02EB0C0EA5
:104FE00003F007021EF80C1C06FA02F211421CD054
:104FF0002518990995F9303054F82330002B00F02A
:105000009881032900F098814FEA800C0CF1A04CA4
:105010001EF8145CDCF800E71540CEF3014E40F0BA
:105020005C81BEF1030F00F0DE81002594F9513060
:10503000581C2DD0DBB223F0C00006AA4FEAD008DE
:1050400002EB080E03F007011EF80C2C06FA01FC17
:1050500012EA0C0F1CD02218990992F9303054F83A
:105060002330002B00F05B81032900F05B8182007C
:1050700002F1A0421EF8148CD2F800E718EA0C0FD7
:10508000CEF3014E40F03681BEF1030F00F0A68151
:1050900094F95230591C2DD0DBB223F0C00006AA7F
:1050A0004FEAD00802EB080E03F007011EF80C2CA3
:1050B00006FA01FC12EA0C0F1CD02218990992F989
:1050C000303054F82330002B00F03C81032900F0ED
:1050D0003C81820002F1A0421EF8148CD2F800E755
:1050E00018EA0C0FCEF3014E40F0E380BEF1030F3F
:1050F00000F06E8194F953305A1C2DD0DBB223F0AE
:10510000C00006AA4FEAD00802EB080E03F0070120
:105110001EF80C2C06FA01FC12EA0C0F1CD0221807
:10512000990992F9303054F82330002B00F0ED80CB
:10513000032900F0ED80820002F1A0421EF8148CD9
:10514000D2F800E718EA0C0FCEF3014E40F0BC8015
:10515000BEF1030F00F00081002D3FF4FCAE4FF0D4
:10516000A043019AD3F8103593423FF4F4AE029A6B
:105170000193039228E700BF0061004004610040F2
:10518000086100400C610040106100401461004063
:10519000186100401C6100407C61004000600040DC
:1051A000842A00209A49D1F8041311F0010170D02B
:1051B000136013680493049B964B1A68012A7FF4CA
:1051C000A3AE934AD2F8042397077FF59DAE002241
:1051D0001A601B680493049B8F4B1A68012A46F0DF
:1051E00002067FF496AE8A4AD2F8042355077FF56B
:1051F00090AE00221A601B680493049B874B1A68C8
:10520000012A46F004067FF489AE814AD2F80423CD
:1052100014077FF583AE00221A601B680493049B79
:105220007F4B1A68012A46F008067FF47CAE784A64
:10523000D2F80423D0067FF576AE00221A601B68F0
:105240000493049B774B1A68012A46F010067FF4FA
:105250006FAE6F4AD2F8042391067FF569AE002243
:105260001A601B680493049B6F4B1A68012A46F06E
:1052700020067FF462AE664AD2F8042352067FF518
:105280005CAE00221A601B680493049B46F0400643
:1052900053E60E4633E6654B00221A601B68059301
:1052A0004FF0A043059AD3F81035019346F000461D
:1052B0004CE6BEF1020F7FF41DAF032963D0002B33
:1052C0003FF418AF984715E7BEF1020F7FF444AFE3
:1052D000032969D0002B54D13EE7BEF1020F7FF4C1
:1052E000A4AE032900F091800025002B3FF49EAE70
:1052F00098479BE6BEF1020F7FF4CAAE032956D051
:10530000002B3FF4C5AE9847C2E603297FF424AFD3
:1053100017F8082042EA0C0207F808200BE70329D7
:105320007FF4B6AE17F8082042EA0C0207F808200E
:105330009DE603297FF479AE17F80C50154307F862
:105340000C5061E603297FF4D5AE17F8082042EA35
:105350000C0207F80820BCE60329BBD14FF4003E3D
:10536000D2F800C72CF4403CC2F800C7D2F800C7FE
:1053700001354CEA0E0CEDB2C2F800C7002B3FF429
:10538000EEAE9847E8E64FF4403ED2F800C72CF462
:10539000403CC2F800C7D2F800C701354CEA0E0CF9
:1053A000EDB2C2F800C78AE74FF4403ED8E74FF4A9
:1053B000403ED2F800C72CF4403CC2F800C7D2F8F7
:1053C00000C701354CEA0E0CEDB2C2F800C797E7F2
:1053D00003297FF474AF4FF4003ED6E703298FD141
:1053E0004FF4003EE5E703297FF47FAF4FF400352B
:1053F000DCF8002722F44032CCF80027DCF8002744
:105400002A43CCF8002701256FE74FF44035EFE73A
:105410000060004004610040086100400C610040F1
:105420001061004014610040186100407C61004040
:105430002DE9F041114C124EDFF8488082B0002572
:105440004FF48037236804F5E04007FA05F20021A5
:10545000013580B253B1D6F804331A4206D0216028
:1054600023680193D8E90031019A9847042D04F18B
:105470000404E7D102B0BDE8F08100BF40910040D4
:1054800000900040DC2A002073DF704776DF704711
:105490007ADF70477CDF70477FDF70478FDF7047B0
:1054A000A8DF7047A9DF704766DF7047014B012214
:1054B0001A707047F82B0020FEF790BB00B583B040
:1054C00002AB054A43F8040D04211846FEF7F2FB2F
:1054D00003B05DF804FB00BFDD59020010B503887E
:1054E000013B84B00446552B36D8DFE803F0603525
:1054F00035353535353535353535353535677D35E2
:1055000091353535353535353535353535352B35F9
:10551000353535353535353535353535353535353B
:105520003535353535353535373535353535353529
:1055300035353535353535353535353535353F56F0
:105540003535353704A9002321F8103D8088FFF751
:10555000A5FF08B1FEF742FB04B010BD80881321FF
:10556000FFF794FF0028F5D104B010BD8379002B1C
:10557000F2D0827B043A022AEED8022B18BF012314
:105580008DF8003080884FF4C1736946ADF804305F
:10559000FFF786FF0028DFD0DCE7224A00231088CF
:1055A00019461A46FFF77EFF0028D5D0D2E780883B
:1055B0000021FFF779FF0028CED0CBE71A4B1B491B
:1055C0001888000440F00300FDF7E8FF0120FEF713
:1055D0009FFA0020FEF7A8FA124BA2881A80FEF765
:1055E000CDFA0028B8D0B5E70F4B11491888000450
:1055F00040F00300FDF7D2FF0120FEF795FA094BBA
:105600004FF6FF721A80FEF7CFFA0028A4D0A1E768
:10561000044A0023108885211A46FFF73DFF002821
:105620009AD097E79021002084230020F4E802001C
:1056300000E902001F4B204A1B6800BF00BF00BFEB
:1056400000BF00BF00BF00BF00BF93422FD000BF0C
:1056500000BF00BF00BF00BF00BF00BF00BF00BF52
:1056600000BF00BF00BF00BF00BF00BF00BF00BF42
:1056700000BF00BF00BF00BF00BF00BF00BF00BF32
:1056800000BF00BF00BF00BF00BF00BF00BF00BF22
:1056900000BF00BF00BF00BF00BF00BF00BF00BF12
:1056A00000BF00BF00BF00BF00BF00BF00BF013888
:1056B000C3D17047942100200024F40008B503787A
:1056C00003B108BD054B3B211888FFF7DFFE00281A
:1056D000F7D0BDE80840FEF781BA00BF9021002056
:1056E00008B502205AB9FEF71FFA074B0749188878
:1056F000000440F00300BDE80840FDF74FBFFEF78F
:1057000007FA014B0249F2E78423002024E9020052
:1057100010E9020008B51120FFF774FAEFF30583D2
:1057200013F0FF0F4FF013000BD0FFF75BFA074B9E
:1057300007491888000440F00300BDE80840FDF761
:105740002DBFFFF757FA014B0249F2E784230020EF
:105750007CE9020064E9020010B584B04FF0A04378
:1057600004A94FF080520D4C01F8010DC3F80C252F
:105770000022009222700A4B0A48012207F054FDD1
:1057800008B108E020BF2378002BFBD00A20FFF7E8
:1057900051FF04B010BDFEF721FAF4E7F82B00200A
:1057A000F02B00205CE9020010B584B04FF0A0435C
:1057B00004A94FF080520D4C01F8010DC3F80825E3
:1057C0000022009222700A4B0A48012207F02CFDA9
:1057D00008B108E020BF2378002BFBD00A20FFF798
:1057E00029FF04B010BDFEF7F9F9F4E7F82B00200B
:1057F000F02B00205CE9020070B5061E0D4606DDA8
:1058000000240134FF20FFF7CFFFB442F9D100207C
:10581000FFF7CAFF0020FFF7C7FF0020FFF7C4FF14
:10582000002D06DD00240134FF20FFF7BDFFAC4250
:10583000F9D170BD70B5061E0D4606DD0024013499
:10584000FF20FFF7B1FFB442F9D10020FFF7ACFF12
:105850000020FFF7A9FF0020FFF7A6FF0020FFF7B9
:10586000A3FF002D06DD00240134FF20FFF79CFF7D
:10587000AC42F9D170BD00BF70B5061E0D4606DD05
:1058800000240134FF20FFF78FFFB442F9D100203C
:10589000FFF78AFF002D06DD00240134FF20FFF70B
:1058A00083FFAC42F9D170BD70B5061E0D4606DD12
:1058B00000240134FF20FFF777FFB442F9D1002024
:1058C000FFF772FF0020FFF76FFF002D06DD0024B9
:1058D0000134FF20FFF768FFAC42F9D170BD00BF73
:1058E00070B5061E0D4606DD00240134FF20FFF7CB
:1058F0005BFFB442F9D1002D06DD00240134FF2006
:10590000FFF752FFAC42F9D170BD00BF70B5061E63
:105910000D4606DD00240134FF20FFF745FFB442A9
:10592000F9D105240020FFF73FFF013CFAD1002DFB
:1059300005DD0134FF20FFF737FFAC42F9D170BD20
:105940000D3838B5032813D8DFE800F002362513E8
:105950001E4C1F4A236801211160002B33D0013BEC
:10596000002241F69A111B482360FEF7A5FE70B98C
:1059700038BD1949164B1748042505240D6000222F
:1059800041F69A111C60FEF797FE0028F0D0BDE8A2
:105990003840FEF723B90D4B0F491B680C4C0D48DE
:1059A000013303250B60002241F69A112560FEF7B2
:1059B00083FE0028EBD138BD0449054C0B6805482F
:1059C00001330225EEE70323CAE700BFF42B0020D2
:1059D00080210020D02B0020002C00200068FFF741
:1059E000AFBF00BFF8B507462A200D4616461C4635
:1059F000FFF7B2FE0020FFF7D7FEF8B2FFF7D4FEA4
:105A00000020FFF7D1FEF0B2FFF7CEFE2B20FFF70C
:105A1000A3FE0020FFF7C8FEE8B2FFF7C5FE002096
:105A2000FFF7C2FEE0B2BDE8F840FFF7BDBE00BF21
:105A30002DE9F04F0021084685B0A0232B22FFF767
:105A4000D1FF2C20FFF788FE374CDFF8E890DFF815
:105A5000E880364F4FF02C0B4FF08056A0254FF0CA
:105A6000A04A4FF0000C8DF80FC04346CAF80865F5
:105A70000122CDF800C00DF10F01384684F800C0B6
:105A800007F0D2FB08B14BE020BF2378002BFBD0FE
:105A90000A23D9F80020264900BF00BF00BF00BF7D
:105AA00000BF00BF00BF00BF8A422FD000BF00BFB1
:105AB00000BF00BF00BF00BF00BF00BF00BF00BFEE
:105AC00000BF00BF00BF00BF00BF00BF00BF00BFDE
:105AD00000BF00BF00BF00BF00BF00BF00BF00BFCE
:105AE00000BF00BF00BF00BF00BF00BF00BF00BFBE
:105AF00000BF00BF00BF00BF00BF00BF00BF00BFAE
:105B000000BF00BF00BF00BF00BF00BF013BC3D14B
:105B1000013DA6D1BBF1010BA0D105B0BDE8F08FCE
:105B2000FEF75CF8B1E700BFF82B00205CE902004B
:105B30000024F40094210020F02B0020F8B5071E6B
:105B40000E46154606DD00240134FF20FFF72CFE2B
:105B5000A742F9D1002E06DD002401340020FFF712
:105B600023FEA642F9D1002D06DD00240134FF20DA
:105B7000FFF71AFEA542F9D1F8BD00BFF8B5071E20
:105B80000E46154606DD002401340020FFF70CFE0A
:105B9000A742F9D1002E06DD00240134FF20FFF7D3
:105BA00003FEA642F9D1002D06DD002401340020B9
:105BB000FFF7FAFDA542F9D1F8BD00BF002110B5ED
:105BC000084632231422FFF70DFF2C20FFF7C4FDF7
:105BD00015240020FFF7E8FD0020FFF7E5FD002079
:105BE000FFF7E2FD0020FFF7DFFD013CF1D10C22C1
:105BF00005210420FFF7C2FF0C2205210420FFF736
:105C0000BDFF0B2207210320FFF7B8FF0B2207215E
:105C10000320FFF7B3FF0A2209210220FFF7AEFF9E
:105C20000A2209210220FFF7A9FF09220B210120E6
:105C3000FFF7A4FF09220B210120FFF79FFF092294
:105C40000B210120FFF79AFF09220B210120FFF70A
:105C500095FF204608220D21FFF790FF20460822DD
:105C60000D21FFF78BFF204608220D21FFF786FF4D
:105C7000204608220D21FFF781FF204608220D2132
:105C8000FFF77CFF204601220D21FFF777FF20461A
:105C900005220221FFF772FF204604221121FFF79F
:105CA0006DFF204604221121FFF768FF20460322E2
:105CB0001221FFF763FF204603221221FFF75EFF48
:105CC000204603221221FFF759FF2046032212210A
:105CD000FFF754FF204603221221FFF74FFF204613
:105CE00003221221FFF74AFF204603221221FFF769
:105CF00045FF204603221221FFF740FF20460322E2
:105D00001221FFF73BFF204604221121FFF736FF47
:105D1000204604221121FFF731FF204601220D21E8
:105D2000FFF72CFF204605220221FFF727FF22461E
:105D300007212046FFF722FF2046FFF735FDFF2011
:105D4000FFF732FD2046FFF72FFD204608220321F2
:105D5000FFF714FF224607212046FFF70FFFC02060
:105D6000FFF722FD1820FFF71FFD0F20FFF71CFD96
:105D7000204608220321FFF701FF22460721204683
:105D8000FFF7FCFEF820FFF70FFD2046FFF70CFDA4
:105D90001F20FFF709FD204608220321FFF7EEFE32
:105DA000224607212046FFF7E9FEFF20FFF7FCFC13
:105DB0002046FFF7F9FCFF20FFF7F6FC20460822FB
:105DC0000321FFF7DBFE224607212046FFF7D6FE20
:105DD000F820FFF7E9FC2046FFF7E6FC1F20FFF75D
:105DE000E3FC204608220321FFF7C8FE22460721D4
:105DF0002046FFF7C3FEC020FFF7D6FC1820FFF7B0
:105E0000D3FC0F20FFF7D0FC204608220321FFF728
:105E1000B5FE224606210120FFF7B0FE2046FFF71F
:105E2000C3FCFF20FFF7C0FC2046FFF7BDFC204667
:105E300009220221FFF7A2FE09220B210120FFF710
:105E40009DFE09220B210120FFF798FE09220B215C
:105E50000120FFF793FE0A2209210220FFF78EFEA0
:105E60000A2209210220FFF789FE0B2207210320C5
:105E7000FFF784FE0B2207210320FFF77FFE0C2291
:105E800005210420FFF77AFE04200C220521FFF7EC
:105E900075FE0248BDE81040FFF7CCBB20A107000B
:105EA000EF4AF04938B5A020EF4BF04C10600025C8
:105EB0000520032208601A602560FFF7B9FD8D23D5
:105EC000212213210A20FFF78DFD2C20FFF744FC2F
:105ED00006240A210846FFF7ADFC013CF9D107244E
:105EE000022210460621FFF729FE0020FFF75CFC86
:105EF0000020FFF759FC0020FFF756FC0020FFF7B9
:105F000053FC022210460621FFF718FE013CE7D1A0
:105F10000724022210460621FFF710FE0020FFF79B
:105F200043FC0020FFF740FC0020FFF73DFC002071
:105F3000FFF73AFC02210846FFF79EFC02210020F1
:105F4000FFF75AFC013CE4D1062405210A20FFF7A3
:105F500071FC04210020FFF78FFC013CF5D11824CF
:105F60000020FFF721FC0020FFF71EFC0020FFF7B8
:105F70001BFC0020FFF718FC013CF1D10422012199
:105F80000920FFF7FBFD0A24FF20FFF70DFC013C71
:105F9000FAD1042202210820FFF7F0FD0A24FF2095
:105FA000FFF702FC013CFAD1042203210720FFF78E
:105FB000E5FD0A24FF20FFF7F7FB013CFAD104229C
:105FC00011460620FFF7DAFD0A24FF20FFF7ECFB5D
:105FD000013CFAD1052108460422FFF7CFFD0A242F
:105FE000FF20FFF7E1FB013CFAD104221046062115
:105FF000FFF7C4FD0A24FF20FFF7D6FB013CFAD1CE
:10600000052206210320FFF7B9FD2046FFF7CCFB50
:106010002046FFF7C9FB2046FFF7C6FB02210846D2
:10602000FFF7EAFB062211460220FFF7A7FD2046F4
:10603000FFF7BAFB2046FFF7B7FB2046FFF7B4FB9C
:1060400002210846FFF7D8FB072206210120FFF7AF
:1060500095FD2046FFF7A8FB2046FFF7A5FB20464D
:10606000FFF7A2FB02210846FFF7C6FB0822062124
:106070002046FFF783FD2046FFF796FB2046FFF7FB
:1060800093FB2046FFF790FB02210846FFF7B4FB85
:10609000092205212046FFF771FD2046FFF784FB0A
:1060A0002046FFF781FB2046FFF77EFB02210846D2
:1060B000FFF7A2FB0A2204212046FFF75FFD2046DE
:1060C000FFF772FB2046FFF76FFB2046FFF76CFBE4
:1060D00002210846FFF790FB0B2203212046FFF721
:1060E0004DFD2046FFF760FB2046FFF75DFB204695
:1060F000FFF75AFB02210846FFF77EFB0B22032124
:106100002046FFF73BFD2046FFF74EFB2046FFF7FA
:106110004BFB2046FFF748FB02210846FFF76CFBCC
:106120000A2204212046FFF729FD2046FFF73CFB09
:106130002046FFF739FB2046FFF736FB02210846D1
:10614000FFF75AFB092205212046FFF717FD2046DD
:10615000FFF72AFB2046FFF727FB2046FFF724FB2B
:1061600002210846FFF748FB082206212046FFF7D8
:1061700005FD2046FFF718FB2046FFF715FB2046DC
:10618000FFF712FB02210846FFF736FB0722062124
:106190000120FFF7F3FC2046FFF706FB2046FFF740
:1061A00003FB2046FFF700FB02210846FFF724FB14
:1061B000062211460220FFF7E1FC2046FFF7F4FA21
:1061C0002046FFF7F1FA2046FFF7EEFA02210846D3
:1061D000FFF712FB052206210320FFF7CFFC204624
:1061E000FFF7E2FA2046FFF7DFFA2046FFF7DCFA76
:1061F00002210846FFF700FB042210460621FFF7A4
:10620000BDFC0A24FF20FFF7CFFA013CFAD105219B
:1062100008460422FFF7B2FC0A24FF20FFF7C4FA65
:10622000013CFAD1042211460620FFF7A7FC0A24FC
:10623000FF20FFF7B9FA013CFAD10422032107201D
:10624000FFF79CFC0A24FF20FFF7AEFA013CFAD1CD
:10625000042202210820FFF791FC0A2408E000BF75
:10626000842100208021002088210020002C002093
:10627000FF20FFF799FA013CFAD1042201210920FD
:10628000FFF77CFC0A24FF20FFF78EFA013CFAD1CD
:1062900018240020FFF788FA0020FFF785FA002075
:1062A000FFF782FA0020FFF77FFA013CF1D10624C4
:1062B0000A210846FFF7BEFA013CF9D10425022164
:1062C0000846FFF7F1FA022108460422FFF756FCC0
:1062D00008240020FFF768FA013CFAD1FF20FFF7FD
:1062E00063FAFF20FFF760FA013DE8D1062502219D
:1062F0000846FFF7D9FA022108460422FFF73EFCC0
:106300000A24FF20FFF750FA013CFAD1013DEED1FB
:10631000042502210846FFF7C7FA02210846042295
:10632000FFF72CFC08240020FFF73EFA013CFAD1CD
:10633000FF20FFF739FAFF20FFF736FA013DE8D1D9
:10634000062502210846FFF7AFFA0221084604227B
:10635000FFF714FC0A24FF20FFF726FA013CFAD1CC
:10636000013DEED118240020FFF71EFA0020FFF7B0
:106370001BFA0020FFF718FA0020FFF715FA013C7E
:10638000F1D106240A210846FFF754FA013CF9D15D
:106390000A24022211460420FFF7F0FB0422022106
:1063A0000020FFF7EBFB02210846FFF77DFA0221F0
:1063B00008460022FFF7E2FB013CEAD10321084630
:1063C0000222FFF7DBFB042202212046FFF7D6FB67
:1063D00002210846FFF768FA022108462246FFF725
:1063E000CDFB022210460421FFF7C8FB0422022144
:1063F0002046FFF7C3FB02210846FFF755FA0221AA
:1064000008462246FFF7BAFB022205210120FFF7CA
:10641000B5FB042202212046FFF7B0FB022108460B
:10642000FFF742FA022108462246FFF7A7FB0222A5
:1064300006212046FFF7A2FB042202212046FFF797
:106440009DFB02210846FFF72FFA0221084622464B
:10645000FFF794FB04220A212046FFF78FFB02215D
:106460000846FFF721FA022108462246FFF786FB7D
:1064700004220A212046FFF781FB02210846FFF78C
:1064800013FA022108462246FFF778FB0122032176
:106490002046FFF773FB042206212046FFF76EFB20
:1064A00002210846FFF700FA022108462246FFF7BC
:1064B00065FB022211462046FFF760FB04220621FD
:1064C0002046FFF75BFB02210846FFF7EDF90221AA
:1064D00008462246FFF752FB032201212046FFF720
:1064E0004DFB042206212046FFF748FB0221084607
:1064F000FFF7DAF9022108462246FFF73FFB0422A4
:1065000021462046FFF73AFB042206212046FFF7EA
:1065100035FB02210846FFF7C7F90221084622464B
:10652000FFF72CFB0A48FFF785F8A0232C22214611
:106530002046FFF757FA2C20FFF70EF96425A02418
:106540000020FFF731F9013CFAD1013DF7D138BD08
:1065500040420F0010B52C20FFF7FEF80020FFF797
:1065600023F91820FFF720F90020FFF71DF900207C
:10657000FFF71AF91820FFF717F90020FFF714F9B1
:106580000020FFF711F9FF20FFF70EF90020FFF7B9
:106590000BF90020FFF708F9FF20FFF705F90020AD
:1065A000FFF702F90320FFF7FFF8FF20FFF7FCF8E1
:1065B000C020FFF7F9F80320FFF7F6F8FF20FFF7F8
:1065C000F3F8C020FFF7F0F83F20FFF7EDF8FF20C9
:1065D000FFF7EAF8FC20FFF7E7F83F20FFF7E4F8C1
:1065E000FF20FFF7E1F8FC20FFF7DEF8FF20FFF7C0
:1065F000DBF8FF20FFF7D8F8FF20FFF7D5F8FF20E2
:10660000FFF7D2F8FF20FFF7CFF8FF20FFF7CCF815
:106610000F240020FFF7C8F8FF20FFF7C5F800207F
:10662000FFF7C2F8013CF4D10320FFF7BDF8FF20CB
:10663000FFF7BAF8C020FFF7B7F80320FFF7B4F868
:10664000FF20FFF7B1F8C020FFF7AEF808243F2085
:10665000FFF7AAF8FF20FFF7A7F8FC20FFF7A4F840
:10666000013CF4D12046FFF79FF82046FFF79CF845
:106670002046BDE81040FFF797B800BF08B52C20B2
:10668000FFF76AF80020FFF78FF80020FFF78CF87B
:106690000320FFF789F8FF20FFF786F8C020FFF7F7
:1066A00083F80020FFF780F80020FFF77DF8FF2037
:1066B000FFF77AF8FF20FFF777F8D820FFF774F894
:1066C0000020FFF771F80320FFF76EF8FF20FFF7B7
:1066D0006BF8FF20FFF768F8FF20FFF765F8002050
:1066E000FFF762F81F20FFF75FF8FF20FFF75CF865
:1066F000FF20FFF759F8FF20FFF756F80020FFF7BB
:1067000053F8FF20FFF750F8FF20FFF74DF8FF2068
:10671000FFF74AF8F820FFF747F80320FFF744F89F
:10672000FF20FFF741F8FF20FFF73EF8FF20FFF7BB
:106730003BF8F820FFF738F81F20FFF735F8FF2067
:10674000FFF732F8FF20FFF72FF8FF20FFF72CF8B4
:10675000C020FFF729F8FF20FFF726F8FF20FFF7FA
:1067600023F8FF20FFF720F8F820FFF71DF800209E
:10677000FFF71AF81F20FFF717F8FF20FFF714F8AC
:10678000FF20FFF711F8FF20FFF70EF8C020FFF7FA
:106790000BF80320FFF708F8FF20FFF705F8FF20AC
:1067A000FFF702F8FF20FEF7FFFFF820FEF7FCFFDF
:1067B0000020FEF7F9FFFF20FEF7F6FFFF20FEF7AF
:1067C000F3FFFF20FEF7F0FFF820FEF7EDFF0020BB
:1067D000FEF7EAFF1F20FEF7E7FFFF20FEF7E4FFCA
:1067E000FF20FEF7E1FFFF20FEF7DEFF0020FEF7AF
:1067F000DBFF0320FEF7D8FFFF20FEF7D5FFFF20C9
:10680000FEF7D2FFFF20FEF7CFFF0020FEF7CCFF00
:106810000020FEF7C9FFFF20FEF7C6FFFF20FEF7AE
:10682000C3FFD820FEF7C0FF0020FEF7BDFF002009
:10683000FEF7BAFF0320FEF7B7FFFF20FEF7B4FF15
:10684000C020BDE80840FEF7AFBF00BF2DE9F04F04
:106850004C4E3368002B87B012DD0E2500242B46EA
:1068600004EB04112A222620FFF7BCF8FFF706FFED
:1068700033680134A34205F11105F0DC022B7BDC07
:1068800003EB0313404CDFF808A1DFF80891DFF8B1
:10689000088103934FF0805703990B460E332A2249
:1068A0002620FFF79FF82C20FEF756FF4FF0050B30
:1068B0000F254FF0A0464FF0000C8DF817C04B4647
:1068C000C6F808750122CDF800C00DF11701404649
:1068D00084F800C006F0A8FC08B150E020BF23787F
:1068E000002BFBD00A23DAF80020284900BF00BFA4
:1068F00000BF00BF00BF00BF00BF00BF8A422FD053
:1069000000BF00BF00BF00BF00BF00BF00BF00BF8F
:1069100000BF00BF00BF00BF00BF00BF00BF00BF7F
:1069200000BF00BF00BF00BF00BF00BF00BF00BF6F
:1069300000BF00BF00BF00BF00BF00BF00BF00BF5F
:1069400000BF00BF00BF00BF00BF00BF00BF00BF4F
:1069500000BF00BF00BF00BF00BF00BF00BF00BF3F
:10696000013BC3D1013DA6D1BBF1010BA0D1039BDB
:106970001133332B03938FD107B0BDE8F08FFDF7B0
:106980002DF9ACE788210020F82B00200024F4002A
:1069900094210020F02B00205CE9020070B53A4CF5
:1069A000216811F1240F09DB384B1D68DDB1012D81
:1069B00047D0374B1B68002B39D02168013911F5BE
:1069C000FA7F216000D070BD3249304A0B68324DE9
:1069D000106801330B600023A0212B702160002878
:1069E0002CD0136070BD01F1240328460222FEF76B
:1069F000F9FFFFF7AFFD2368312BDADC274B244D7D
:106A00001A682B68012AD6D0234A11780029D2D1DE
:106A1000013B012111702B60FFF718FFFFF7CEF843
:106A20001C492B680A68013A0A60002BC5D1194A33
:106A3000136801331360FFF733FABEE701231360D5
:106A400070BD01F124030F220D20FEF7CBFFFFF7ED
:106A500081FD2368312BACDC104B0D4E1A68336876
:106A6000022AA8D00C4A11780029A4D1013B336036
:106A70001570FFF7EBFEFFF7A1F8064933680A68C7
:106A8000013A0A6097E700BF84210020982B00207C
:106A9000882100209C2B0020A02B0020FC2B002014
:106AA00038B500249E4D21462046322314222C6006
:106AB000FEF798FF2C20FEF74FFE15240020FEF76E
:106AC00073FE0020FEF770FE0020FEF76DFE002032
:106AD000FEF76AFE013CF1D10C2205210420FFF7EC
:106AE0004DF80C2205210420FFF748F80B2207215E
:106AF0000320FFF743F80B2207210320FFF73EF89E
:106B00000A2209210220FFF739F80A22092102206E
:106B1000FFF734F809220B210120FFF72FF8092293
:106B20000B210120FFF72AF809220B210120FFF792
:106B300025F809220B210120FFF720F82046082222
:106B40000D21FFF71BF8204608220D21FFF716F84C
:106B5000204608220D21FFF711F8204608220D21BA
:106B6000FFF70CF8204608220D21FFF707F8204612
:106B700001220D21FFF702F8204605220221FEF72F
:106B8000FDFF204604221121FEF7F8FF20460422D3
:106B90001121FEF7F3FF204603221221FEF7EEFF3C
:106BA000204603221221FEF7E9FF2046032212218C
:106BB000FEF7E4FF204603221221FEF7DFFF204606
:106BC00003221221FEF7DAFF204603221221FEF7EC
:106BD000D5FF204603221221FEF7D0FF20460322D4
:106BE0001221FEF7CBFF204603221221FEF7C6FF3B
:106BF000204604221121FEF7C1FF20460422112164
:106C0000FEF7BCFF204601220D21FEF7B7FF20460C
:106C100005220221FEF7B2FF224620460721FEF799
:106C2000ADFF032108460822FEF7A8FF22462046B2
:106C30000721FEF7A3FF032108460822FEF79EFF67
:106C4000224620460721FEF799FF03210846082225
:106C5000FEF794FF224620460721FEF78FFF03210F
:106C600008460822FEF78AFF224620460721FEF743
:106C700085FF032108460822FEF780FF22462046B2
:106C80000721FEF77BFF032108460822FEF776FF67
:106C9000224606210120FEF771FF0922022103206E
:106CA000FEF76CFF09220B210120FEF767FF092286
:106CB0000B210120FEF762FF09220B210120FEF7C4
:106CC0005DFF0A2209210220FEF758FF0A2209214E
:106CD0000220FEF753FF0B2207210320FEF74EFF91
:106CE0000B2207210320FEF749FF0C220521042077
:106CF000FEF744FF0C2205210420FEF73FFF094D5B
:106D0000C82401E0013C0AD0FFF748FE4FF47A7036
:106D1000FEF790FCFDF730F82B68002BF2D038BD61
:106D2000FC2B00208021002038B50021CA4C0846E9
:106D30003223142201252560FEF754FE2C20FEF795
:106D40000BFD15240020FEF72FFD0020FEF72CFD83
:106D50000020FEF729FD0020FEF726FD013CF1D1C1
:106D600021460620FEF788FD092220460521FEF770
:106D700005FF21460620FEF77FFD0922204605215A
:106D8000FEF7FCFE21460520FEF776FD2046082290
:106D90000721FEF7F3FE082207210620FEF7EEFE8C
:106DA000072209210520FEF7E9FE07220921052017
:106DB000FEF7E4FE21460320FEF792FD06220B219A
:106DC0000120FEF7DBFE21460320FEF789FD0622A7
:106DD0000B210120FEF7D2FE21460320FEF780FDA5
:106DE00006220B210120FEF7C9FE06220B210420FA
:106DF000FEF7C4FE05220D210320FEF7BFFE05228B
:106E00000D210320FEF7BAFE21460220FEF734FDD5
:106E1000052220460D21FEF7B1FE21460220FEF795
:106E20002BFD052220460D21FEF7A8FE214602205B
:106E3000FEF722FD204605220D21FEF79FFE0122CE
:106E40000D210320FEF79AFE022211462046FEF78E
:106E500095FE012211210320FEF790FE012211214F
:106E60000320FEF78BFE21460220FEF705FD224699
:106E700020461221FEF782FE21460220FEF7FCFC8E
:106E8000224620461221FEF779FE21460220FEF717
:106E9000F3FC224620461221FEF770FE2246122104
:106EA0000320FEF76BFE224612210320FEF766FE4A
:106EB000224612210320FEF761FE21460220FEF742
:106EC000DBFC224620461221FEF758FE2146022016
:106ED000FEF7D2FC224620461221FEF74FFE214645
:106EE0000220FEF7C9FC224620461221FEF746FE8C
:106EF000012211210320FEF741FE0122112103206E
:106F0000FEF73CFE01220D210320FEF737FE022290
:106F100011462046FEF732FE07210220FEF7ACFCA8
:106F2000032108460522FEF729FE07210220FEF76D
:106F3000A3FC032108460522FEF720FE07210220BC
:106F4000FEF79AFC032108460522FEF717FE2246AB
:106F500007210320FEF712FE032108460522FEF753
:106F60000DFE224607210320FEF708FE03210846F6
:106F70000522FEF703FE224607210320FEF7FEFD51
:106F8000032108460522FEF7F9FD06210320FEF73E
:106F900073FC062202210320FEF7F0FDFF20FEF71E
:106FA00003FCFF20FEF700FCFF20FEF7FDFB06229E
:106FB0000B210120FEF7E2FDFF20FEF7F5FBFF208D
:106FC000FEF7F2FBFF20FEF7EFFB06220B2101206C
:106FD000FEF7D4FD06220B210420FEF7CFFD072289
:106FE00009210520FEF7CAFD072209210520FEF729
:106FF000C5FD0524FF20FEF7D7FB013CFAD108228E
:1070000007210120FEF7BAFD0524FF20FEF7CCFB87
:10701000013CFAD1082207210120FEF7AFFD06242A
:10702000FF20FEF7C1FB013CFAD109220521012016
:10703000FEF7A4FD092205210720FEF79FFDC824C5
:10704000FFF7ACFC4FF47A70FEF7F4FAFCF794FE0D
:10705000013CF5D138BD00BFFC2B002038B5002124
:107060009A4C08463223142202252560FEF7BAFC0A
:107070002C20FEF771FB15240020FEF795FB002065
:10708000FEF792FB0020FEF78FFB0020FEF78CFB43
:10709000013CF1D1204612220321FEF76FFD20466C
:1070A00012220321FEF76AFD204611220421FEF779
:1070B00065FD204611220421FEF760FD20461022C6
:1070C0000521FEF75BFD204610220521FEF756FD47
:1070D00020460F220621FEF751FD20460F220621F1
:1070E000FEF74CFD20460F220621FEF747FD204605
:1070F0000F220621FEF742FD20460E220721FEF751
:107100003DFD20460E220721FEF738FD20460E22C7
:107110000721FEF733FD20460E220721FEF72EFD44
:1071200020460E220721FEF729FD204601220721D5
:10713000FEF724FD20460B220221FEF71FFD20460C
:107140000A220B21FEF71AFD20460A220B21FEF728
:1071500015FD204609220C21FEF710FD20460922CC
:107160000C21FEF70BFD204609220C21FEF706FD3F
:10717000204609220C21FEF701FD204609220C21A0
:10718000FEF7FCFC204609220C21FEF7F7FC204606
:1071900009220C21FEF7F2FC204609220C21FEF701
:1071A000EDFC204609220C21FEF7E8FC20460A22CD
:1071B0000B21FEF7E3FC20460A220B21FEF7DEFC42
:1071C000204601220721FEF7D9FC0B22204602218E
:1071D000FEF7D4FC20460121FEF782FB032108467E
:1071E0000E22FEF7CBFC20460121FEF779FB03219E
:1071F00008460E22FEF7C2FC20460121FEF770FB76
:10720000032108460E22FEF7B9FC22462046012142
:10721000FEF7B4FC032108460E22FEF7AFFC22461F
:1072200020460121FEF7AAFC032108460E22FEF7A4
:10723000A5FC224620460121FEF7A0FC03210846BA
:107240000E22FEF79BFC20460121FEF749FB0F2290
:1072500002210320FEF792FC20460F220621FEF7B2
:107260008DFC20460F220621FEF788FC20460F22C7
:107270000621FEF783FC204610220521FEF77EFC46
:10728000204610220521FEF779FC20461122042118
:10729000FEF774FC204611220421FEF76FFC204605
:1072A00012220321FEF76AFC204612220321FEF778
:1072B00065FCC824FFF772FB4FF47A70FEF7BAF949
:1072C000FCF75AFD013CF5D138BD00BFFC2B002076
:1072D00008B5C21C01F10803FEF784FB2C20FEF761
:1072E0003BFAFF20FEF760FAFF20FEF75DFAFF2071
:1072F000FEF75AFAC020FEF757FAFF20FEF754FABD
:10730000FF20FEF751FAFF20FEF74EFAC020FEF7ED
:107310004BFAF820FEF748FA0020FEF745FA0F2056
:10732000FEF742FAC020FEF73FFAF820FEF73CFADB
:107330000020FEF739FA0F20FEF736FAC020FEF7DC
:1073400033FAF820FEF730FA0020FEF72DFA0F206E
:10735000FEF72AFAC020FEF727FAF820FEF724FAF3
:107360000020FEF721FA0F20FEF71EFAC020FEF7DC
:107370001BFAF820FEF718FA0020FEF715FA0F2086
:10738000FEF712FAC020FEF70FFAFF20FEF70CFA04
:10739000FF20FEF709FAFF20FEF706FAC020FEF7ED
:1073A00003FAFF20FEF700FAFF20FEF7FDF9FF20A9
:1073B000FEF7FAF9C020BDE80840FEF7F5B900BFB6
:1073C00010B5C21C01F10803FEF70CFB2C20FEF7E0
:1073D000C3F904240020FEF7E7F90020FEF7E4F9E2
:1073E0000020FEF7E1F9013CF4D1FF20FEF7DCF9C3
:1073F000FF20FEF7D9F9FF20FEF7D6F9C020FEF7EF
:10740000D3F9FF20FEF7D0F9FF20FEF7CDF9FF20DA
:10741000FEF7CAF9C020FEF7C7F904240020FEF7E2
:10742000C3F90020FEF7C0F90020FEF7BDF9013CCA
:10743000F4D110BD08B5C21C01F10803FEF7D2FA61
:107440002C20FEF789F9FF20FEF7AEF9FF20FEF7AA
:10745000ABF90F20FEF7A8F9C020FEF7A5F9FF2031
:10746000FEF7A2F9FF20FEF79FF90F20FEF79CF927
:10747000C020FEF799F9F820FEF796F91F20FEF7D5
:1074800093F90F20FEF790F9C020FEF78DF9F82050
:10749000FEF78AF91F20FEF787F90F20FEF784F91F
:1074A000C020FEF781F9F820FEF77EF91F20FEF7D5
:1074B0007BF90F20FEF778F9C020FEF775F9F82068
:1074C000FEF772F91F20FEF76FF90F20FEF76CF937
:1074D000C020FEF769F9F820FEF766F91F20FEF7D5
:1074E00063F9FF20FEF760F9C020FEF75DF9F82090
:1074F000FEF75AF91F20FEF757F9FF20FEF754F95F
:10750000C020BDE80840FEF74FB900BF08B5C21C57
:1075100001F10803FEF766FA2C20FEF71DF9F820AA
:10752000FEF742F91F20FEF73FF90F20FEF73CF966
:10753000C020FEF739F9F820FEF736F91F20FEF7D4
:1075400033F90F20FEF730F9C020FEF72DF9F820AF
:10755000FEF72AF91F20FEF727F90F20FEF724F97E
:10756000C020FEF721F9F820FEF71EF91F20FEF7D4
:107570001BF90F20FEF718F9C020FEF715F9F820C7
:10758000FEF712F91F20FEF70FF90F20FEF70CF996
:10759000C020FEF709F9F820FEF706F91F20FEF7D4
:1075A00003F90F20FEF700F9C020FEF7FDF8FF20D9
:1075B000FEF7FAF8FF20FEF7F7F8FF20FEF7F4F8E1
:1075C000C020FEF7F1F8FF20FEF7EEF8FF20FEF7EF
:1075D000EBF8FF20FEF7E8F8C020BDE80840FEF712
:1075E000E3B800BF10B51E232A2200212320FEF796
:1075F000F9F92C20FEF7B0F8FF20FEF7D5F8FF20B0
:10760000FEF7D2F8FF20FEF7CFF8C020FEF7CCF847
:10761000FF20FEF7C9F8FF20FEF7C6F8FF20FEF7AF
:10762000C3F8C020FEF7C0F8FF20FEF7BDF8FF202A
:10763000FEF7BAF8FF20FEF7B7F8C020FEF7B4F85F
:10764000FF20FEF7B1F8FF20FEF7AEF8FF20FEF7AF
:10765000ABF8C020FEF7A8F8F820FEF7A5F81F2029
:10766000FEF7A2F80F20FEF79FF8C020FEF79CF867
:10767000F820FEF799F80020FEF796F80020FEF7B4
:1076800093F80020FEF790F8F820FEF78DF81F2001
:10769000FEF78AF80F20FEF787F8C020FEF784F87F
:1076A000F820FEF781F80020FEF77EF80020FEF7B4
:1076B0007BF80020FEF778F8F820FEF775F81F2019
:1076C000FEF772F80F20FEF76FF8C020FEF76CF897
:1076D000F820FEF769F80020FEF766F80020FEF7B4
:1076E00063F80020FEF760F8F820FEF75DF81F2031
:1076F000FEF75AF80F20FEF757F8C020FEF754F8AF
:10770000F820FEF751F80020FEF74EF80020FEF7B3
:107710004BF80020FEF748F8F820FEF745F81F2048
:10772000FEF742F80F20FEF73FF8C020FEF73CF8C6
:10773000F820FEF739F80020FEF736F80020FEF7B3
:1077400033F80020FEF730F8F820FEF72DF81F2060
:10775000FEF72AF80F20FEF727F8C020FEF724F8DE
:10776000F820FEF721F80020FEF71EF80020FEF7B3
:107770001BF80020FEF718F808240020FEF714F884
:107780000020FEF711F8013CF7D1F820FEF70CF8C5
:107790002046FEF709F80F20FEF706F8C020FEF796
:1077A00003F82046FEF700F82046FDF7FDFF2046CF
:1077B000FDF7FAFF2046FDF7F7FFFF20FDF7F4FF86
:1077C000C020FDF7F1FFFF20FDF7EEFFC020FDF721
:1077D000EBFF2046FDF7E8FF2046FDF7E5FF2046DA
:1077E000FDF7E2FF2046FDF7DFFF0F20FDF7DCFF8E
:1077F000FF20FDF7D9FFF820FDF7D6FF2046FDF763
:10780000D3FF2046FDF7D0FF2046FDF7CDFF2046F1
:10781000FDF7CAFF2046FDF7C7FF2046FDF7C4FF6E
:107820001F20FDF7C1FF2046FDF7BEFF2046FDF7F4
:10783000BBFF2046FDF7B8FF2046FDF7B5FF204609
:10784000FDF7B2FF2046FDF7AFFF0F20FDF7ACFFBD
:10785000FF20FDF7A9FFF820FDF7A6FF2046FDF762
:10786000A3FF2046FDF7A0FF2046FDF79DFF204621
:10787000FDF79AFF2046FDF797FFFF20FDF794FFE5
:10788000C020FDF791FFFF20FDF78EFFC020FDF720
:107890008BFF2046FDF788FF2046FDF785FF204639
:1078A000FDF782FF2046FDF77FFFF820FDF77CFF04
:1078B0002046FDF779FF0F20FDF776FFC020FDF78A
:1078C00073FF2046FDF770FF2046FDF76DFF204651
:1078D000FDF76AFF2046FDF767FF08240020FDF74B
:1078E00063FF0020FDF760FF013CF7D1FF20FDF7AB
:1078F0005BFFFF20FDF758FFFF20FDF755FFC0207D
:10790000FDF752FF2046FDF74FFF2046FDF74CFFE5
:10791000FF20FDF749FFC020FDF746FFFF20FDF7E0
:1079200043FFFF20FDF740FFFF20FDF73DFFC02094
:10793000FDF73AFF2046FDF737FF1F20FDF734FF24
:10794000FF20FDF731FFC020FDF72EFF2046FDF799
:107950002BFF1F20FDF728FF0F20FDF725FFC0207C
:10796000FDF722FF0F20FDF71FFFFF20FDF71CFF93
:107970002046FDF719FF2046FDF716FF2046FDF7CC
:1079800013FF1F20FDF710FF0F20FDF70DFFC02094
:10799000FDF70AFFFF20FDF707FFF020FDF704FFCA
:1079A0002046FDF701FF2046FDF7FEFE2046FDF7CD
:1079B000FBFE1F20FDF7F8FE0F20FDF7F5FEC020AF
:1079C000FDF7F2FEFF20FDF7EFFEF020FDF7ECFEE5
:1079D0002046FDF7E9FE2046FDF7E6FE2046FDF7CE
:1079E000E3FE1F20FDF7E0FE0F20FDF7DDFEC020C7
:1079F000FDF7DAFE0F20FDF7D7FEFF20FDF7D4FEDE
:107A00002046FDF7D1FE2046FDF7CEFE2046FDF7CD
:107A1000CBFE1F20FDF7C8FEFF20FDF7C5FEC020EE
:107A2000FDF7C2FE2046FDF7BFFE1F20FDF7BCFE9E
:107A3000FF20FDF7B9FEC020FDF7B6FE2046FDF79A
:107A4000B3FE1F20FDF7B0FEFF20FDF7ADFEC02006
:107A5000FDF7AAFE2046FDF7A7FE2046FDF7A4FE8F
:107A6000FF20FDF7A1FEC020FDF79EFE08240020A8
:107A7000FDF79AFE0020FDF797FE013CF7D10F209D
:107A8000FDF792FEC020FDF78FFEF820FDF78CFE7B
:107A90002046FDF789FE0F20FDF786FEC020FDF78A
:107AA00083FEF820FDF780FE2046FDF77DFE0F20C7
:107AB000FDF77AFEC020FDF777FEF820FDF774FE93
:107AC0002046FDF771FE0F20FDF76EFEC020FDF78A
:107AD0006BFEF820FDF768FE2046FDF765FE184BAB
:107AE0001B68012B11D0022B1AD0032B1DD0154B74
:107AF0001B6823B1012B1DD0022B0BD010BD202100
:107B00002320BDE81040FFF7E3BB20212720FFF72B
:107B100057FCECE720212320BDE81040FFF78ABC8A
:107B200020212720FFF786FCE1E720212720FFF70F
:107B3000EDFCDCE720212320BDE81040FFF740BC2E
:107B40008C2100209C2B002038B5BF4D2C6863424F
:107B500003F0030304F003044FF0230258BF5C4218
:107B60006421A0231E202C60FDF73CFF2C20FDF794
:107B7000F3FD2C68002C00F0FF80012C00F06681E2
:107B8000022C02D0032C60D038BD0624FF20FDF764
:107B90000BFEFF20FDF708FEFF20FDF705FE013C70
:107BA000F4D10724022201210320FDF7E7FF013C65
:107BB000F8D10624FF20FDF7F7FDFF20FDF7F4FDC7
:107BC000FF20FDF7F1FD013CF4D106240020FDF774
:107BD000EBFD0020FDF7E8FD013CF7D10624FF2076
:107BE000FDF7E2FDFF20FDF7DFFDFF20FDF7DCFDE7
:107BF000013CF4D10A2400210120FDF787FE013C5D
:107C0000F9D106240020FDF7CFFD0020FDF7CCFDC3
:107C1000013CF7D1052401210020FDF777FE013C4E
:107C2000F9D10624FF20FDF7BFFDFF20FDF7BCFDC5
:107C3000FF20FDF7B9FD013CF4D10524012100200E
:107C4000FDF764FE013CF9D138BD0624FF20FDF7A5
:107C5000ABFDFF20FDF7A8FDFF20FDF7A5FD013CD2
:107C6000F4D10724022210460121FDF787FFFF20EF
:107C7000FDF79AFD013CF5D10624FF20FDF794FDA8
:107C8000FF20FDF791FDFF20FDF78EFD013CF4D1B3
:107C900006240020FDF788FD0020FDF785FD013C4E
:107CA000F7D10624FF20FDF77FFDFF20FDF77CFDC7
:107CB000FF20FDF779FD013CF4D10724012108469E
:107CC000FDF7B8FD013CF9D10624FF20FDF76CFD5E
:107CD000FF20FDF769FDFF20FDF766FD013CF4D1B3
:107CE00006240020FDF760FD0020FDF75DFD013C4E
:107CF000F7D1224601210520FDF740FF224602214F
:107D00000420FDF73BFF032122460846FDF736FF1E
:107D1000012203210220FDF731FF0222032101206D
:107D2000FDF72CFF032211462046FDF727FF2046D2
:107D300004220221FDF722FF032211462046FDF70F
:107D40001DFF022203210120FDF718FF012203215C
:107D50000220FDF713FF032122460846FDF70EFF20
:107D6000224602210420FDF709FF224601210520B9
:107D7000BDE83840FDF702BF0624FF20FDF714FDE3
:107D8000FF20FDF711FDFF20FDF70EFD013CF4D1B2
:107D90000A2401210846FDF787FD01210020FDF797
:107DA0006BFD013CF5D106240020FDF7FDFC002011
:107DB000FDF7FAFC013CF7D10624FF20FDF7F4FCA7
:107DC000FF20FDF7F1FCFF20FDF7EEFC013CF4D1B4
:107DD0000724022210460121FDF7D0FEFF20FDF707
:107DE000E3FC013CF5D10624FF20FDF7DDFCFF207C
:107DF000FDF7DAFCFF20FDF7D7FC013CF4D10624A7
:107E00000020FDF7D1FC0020FDF7CEFC013CF7D1AE
:107E1000052401210020FDF779FD013CF9D106245C
:107E2000FF20FDF7C1FCFF20FDF7BEFCFF20FDF7A2
:107E3000BBFC013CF4D1052401210020FDF766FDC7
:107E4000013CF9D138BD00BFF42B002020460321AE
:107E5000FDF72AFD20460321FDF726FD20460321DC
:107E6000FDF722FD072401210846FDF71DFD012134
:107E70000020FDF701FD013CF5D101210420FDF7B3
:107E8000FBFC01210420FDF7F7FC01210420FDF794
:107E9000F3FC06240020FDF787FC0020FDF784FC9E
:107EA000013CF7D10624FF20FDF77EFCFF20FDF703
:107EB0007BFCFF20FDF778FC013CF4D10A24002173
:107EC0000120FDF723FD013CF9D106240020FDF738
:107ED0006BFC0020FDF768FC013CF7D10624FF2075
:107EE000FDF762FCFF20FDF75FFCFF20FDF75CFC67
:107EF000013CF4D10724012211460320FDF73EFE88
:107F0000FF20FDF751FC013CF5D103210846224634
:107F1000FDF734FE032122460846FDF72FFE03211C
:107F200022460846BDE83840FDF728BE10B5782344
:107F3000142228210020FDF755FD2C20FDF70CFC14
:107F400015240020FDF730FC0020FDF72DFC00205B
:107F5000FDF72AFC0020FDF727FC013CF1D10422AB
:107F600005210820FDF70AFEFF20FDF71DFC204635
:107F7000FDF71AFC2046FDF717FC2046FDF714FC20
:107F8000042205210820FDF7F9FDFF20FDF70CFC78
:107F90002046FDF709FC2046FDF706FC2046FDF7CC
:107FA00003FC072108460222FDF7E8FDFF20FDF74C
:107FB000FBFBFF20FDF7F8FBFF20FDF7F5FB20465C
:107FC000FDF7F2FB2046FDF7EFFB072108460222F2
:107FD000FDF7D4FDFF20FDF7E7FBFF20FDF7E4FBF5
:107FE000FF20FDF7E1FB2046FDF7DEFB2046FDF715
:107FF000DBFB224609210620FDF7C0FD0524FF20FA
:10800000FDF7D2FB013CFAD12046FDF7CDFB22461D
:1080100009210620FDF7B2FD0524FF20FDF7C4FB72
:10802000013CFAD12046FDF7BFFB2246092105207D
:10803000FDF7A4FD0624FF20FDF7B6FB013CFAD1B5
:108040002046FDF7B1FB224610210520FDF796FDE5
:10805000224610210520FDF791FD22461021052022
:10806000FDF78CFD012210210420FDF787FD012280
:1080700010210420FDF782FD012210210420FDF7CC
:108080007DFD02220F210420FDF778FD02220F2141
:108090000420FDF773FD022206210420FDF76EFD8A
:1080A00021460520FDF7C6FB022206210420FDF72C
:1080B00065FD21460520FDF7BDFB022206210420B7
:1080C000FDF75CFD21460520FDF7B4FB04221046B8
:1080D0000521FDF753FD21460520FDF78DFB042208
:1080E00010460521FDF74AFD21460520FDF784FBDA
:1080F000042210460521FDF741FD21460520FDF72C
:108100007BFB042210460521FDF738FD21460520A2
:10811000FDF772FB022206210420FDF72FFD214608
:108120000620FDF769FB022206210420FDF726FD4B
:1081300021460620FDF760FB022206210420FDF700
:108140001DFD21460620FDF757FB03220E210420CA
:10815000FDF714FD03220E210420FDF70FFD03227D
:108160000E210420FDF70AFD03220E210420FDF755
:1081700005FD03220E210420FDF700FD03220E2140
:108180000420FDF7FBFC03220E210420FDF7F6FC82
:1081900003220E210420FDF7F1FC03220E2104200E
:1081A000FDF7ECFC03220E210420FDF7E7FC03227F
:1081B0000E210420FDF7E2FC03220E210420FDF72E
:1081C000DDFC022206210420FDF7D8FC2146062012
:1081D000FDF712FB022206210420FDF7CFFC214609
:1081E0000620FDF709FB022206210420FDF7C6FC4C
:1081F00021460620FDF700FB042210460521FDF76D
:10820000BDFC21460520FDF7F7FA042210460521A2
:10821000FDF7B4FC21460520FDF7EEFA04221046D6
:108220000521FDF7ABFC21460520FDF7E5FA042208
:1082300010460521FDF7A2FC21460520FDF7DCFADA
:10824000022206210420FDF799FC21460520FDF7B6
:10825000F1FA022206210420FDF790FC21460520B8
:10826000FDF7E8FA022206210420FDF787FC2146EB
:108270000520FDF7DFFA02220F210420FDF77EFC26
:1082800002220F210420FDF779FC01221021042095
:10829000FDF774FC012210210420FDF76FFC012280
:1082A00010210420FDF76AFC224610210520FDF76D
:1082B00065FC224610210520FDF760FC22461021B6
:1082C0000520FDF75BFC224609210520FDF756FC41
:1082D0000624FF20FDF768FA013CFAD12046FDF79D
:1082E00063FA224609210620FDF748FC0524FF20F9
:1082F000FDF75AFA013CFAD12046FDF755FA22461D
:1083000009210620FDF73AFC0524FF20FDF74CFA71
:10831000013CFAD12046FDF747FA07210846022220
:10832000FDF72CFCFF20FDF73FFAFF20FDF73CFA9C
:10833000FF20FDF739FA2046FDF736FA2046FDF713
:1083400033FA072108460222FDF718FCFF20FDF74B
:108350002BFAFF20FDF728FAFF20FDF725FA20462B
:10836000FDF722FA2046FDF71FFA04220521082016
:10837000FDF704FCFF20FDF717FA2046FDF714FA7D
:108380002046FDF711FA2046FDF70EFA04220521DA
:108390000820FDF7F3FBFF20FDF706FA2046FDF766
:1083A00003FA2046FDF700FA2046FDF7FDF96424A4
:1083B000FFF7CAFB4FF47A70FDF73CF9FBF7DCFCE2
:1083C000013CF5D12046782314222821FDF70AFB31
:1083D0002C20FDF7C1F915240020FDF7E5F9002058
:1083E000FDF7E2F90020FDF7DFF90020FDF7DCF9E9
:1083F000013CF1D1042205210820FDF7BFFBFF203D
:10840000FDF7D2F92046FDF7CFF92046FDF7CCF96C
:108410002046FDF7C9F9042205210820FDF7AEFB2F
:10842000FF20FDF7C1F92046FDF7BEF92046FDF714
:10843000BBF92046FDF7B8F9072108460222FDF7EF
:108440009DFBFF20FDF7B0F9FF20FDF7ADF9FF2000
:10845000FDF7AAF92046FDF7A7F92046FDF7A4F994
:10846000072108460222FDF789FBFF20FDF79CF952
:10847000FF20FDF799F9FF20FDF796F92046FDF75B
:1084800093F92046FDF790F9224609210620FDF7D1
:1084900075FB0524FF20FDF787F9013CFAD1204642
:1084A000FDF782F9224609210620FDF767FB052426
:1084B000FF20FDF779F9013CFAD12046FDF774F968
:1084C000224609210520FDF759FB0624FF20FDF770
:1084D0006BF9013CFAD12046FDF766F922461021DE
:1084E0000520FDF74BFB224610210520FDF746FB3A
:1084F000224610210520FDF741FB01221021042016
:10850000FDF73CFB012210210420FDF737FB01227F
:1085100010210420FDF732FB02220F210420FDF779
:108520002DFB02220F210420FDF728FB0222062149
:108530000420FDF723FB21460520FDF77BF90222ED
:1085400006210420FDF71AFB21460520FDF772F9EC
:10855000022206210420FDF711FB21460520FDF72C
:1085600069F9022207210420FDF708FB21460520B6
:10857000FDF742F9022207210420FDF7FFFA214608
:108580000520FDF739F9022207210420FDF7F6FA4C
:1085900021460520FDF730F9022207210420FDF7CE
:1085A000EDFA21460520FDF727F9022206210420D5
:1085B000FDF7E4FA21460620FDF71EF90222062106
:1085C0000420FDF7DBFA21460620FDF715F902220B
:1085D00006210420FDF7D2FA21460620FDF70CF90A
:1085E00003220E210420FDF7C9FA03220E210420E4
:1085F000FDF7C4FA03220E210420FDF7BFFA03227F
:108600000E210420FDF7BAFA03220E210420FDF703
:10861000B5FA03220E210420FDF7B0FA03220E2141
:108620000420FDF7ABFA03220E210420FDF7A6FA81
:1086300003220E210420FDF7A1FA03220E210420BB
:10864000FDF79CFA03220E210420FDF797FA03227E
:108650000E210420FDF792FA022206210420FDF7E4
:108660008DFA21460620FDF7C7F8022206210420D4
:10867000FDF784FA21460620FDF7BEF80222062106
:108680000420FDF77BFA21460620FDF7B5F802220B
:1086900007210420FDF772FA21460520FDF7ACF80A
:1086A000022207210420FDF769FA21460520FDF783
:1086B000A3F8022207210420FDF760FA21460520D5
:1086C000FDF79AF8022207210420FDF757FA214608
:1086D0000520FDF791F8022206210420FDF74EFA4D
:1086E00021460520FDF7A6F8022206210420FDF709
:1086F00045FA21460520FDF79DF8022206210420B7
:10870000FDF73CFA21460520FDF794F802220F21DF
:108710000420FDF733FA02220F210420FDF72EFA80
:10872000012210210420FDF729FA01221021042042
:10873000FDF724FA012210210420FDF71FFA22463A
:1087400010210520FDF71AFA224610210520FDF719
:1087500015FA224610210520FDF710FA22460921BC
:108760000520FDF70BFA0624FF20FDF71DF8013C5C
:10877000FAD12046FDF718F8224609210620FDF718
:10878000FDF90524FF20FDF70FF8013CFAD1204642
:10879000FDF70AF8224609210620FDF7EFF9052426
:1087A000FF20FDF701F8013CFAD12046FCF7FCFF61
:1087B000072108460222FDF7E1F9FF20FCF7F4FF4C
:1087C000FF20FCF7F1FFFF20FCF7EEFF2046FCF74F
:1087D000EBFF2046FCF7E8FF072108460222FDF7E1
:1087E000CDF9FF20FCF7E0FFFF20FCF7DDFFFF20C5
:1087F000FCF7DAFF2046FCF7D7FF2046FCF7D4FF52
:10880000042205210820FDF7B9F9FF20FCF7CCFF71
:108810002046FCF7C9FF2046FCF7C6FF2046FCF7C0
:10882000C3FF042205210820FDF7A8F9FF20FCF76B
:10883000BBFF2046FCF7B8FF2046FCF7B5FF2046FB
:10884000FCF7B2FF64244FF47A70FCF7F3FEFFF7F5
:108850007BF9FBF791FA013CF5D110BD10B57823F7
:10886000142228210020FDF7BDF82C20FCF774FF0E
:1088700015240020FCF798FF0020FCF795FF00204E
:10888000FCF792FF0020FCF78FFF013CF1D104229E
:1088900005210820FDF772F9FF20FCF785FF20462F
:1088A000FCF782FF2046FCF77FFF2046FCF77CFFA9
:1088B000042205210820FDF761F9FF20FCF774FF71
:1088C0002046FCF771FF2046FCF76EFF2046FCF7C0
:1088D0006BFF072108460222FDF750F9FF20FCF745
:1088E00063FFFF20FCF760FFFF20FCF75DFF2046E1
:1088F000FCF75AFF2046FCF757FF072108460222E3
:10890000FDF73CF9FF20FCF74FFFFF20FCF74CFF81
:10891000FF20FCF749FF2046FCF746FF2046FCF706
:1089200043FF224609210620FDF728F90524FF20F0
:10893000FCF73AFF013CFAD12046FCF735FF22460E
:1089400009210620FDF71AF90524FF20FCF72CFF6A
:10895000013CFAD12046FCF727FF224609210520D9
:10896000FDF70CF90624FF20FCF71EFF013CFAD1AD
:108970002046FCF719FF224610210520FDF7FEF8DE
:10898000224610210520FDF7F9F822461021052086
:10899000FDF7F4F8012210210420FDF7EFF8012281
:1089A00010210420FDF7EAF8012210210420FDF730
:1089B000E5F802220F210420FDF7E0F802220F2142
:1089C0000420FDF7DBF8022206210420FDF7D6F88B
:1089D00021460520FCF72EFF022206210420FDF788
:1089E000CDF821460520FCF725FF01210846FCF7BC
:1089F00043FF022206210120FDF7C0F82146052091
:108A0000FCF718FF01210846FCF736FF0422052178
:108A10000120FDF7B3F821460520FCF7EDFE01210A
:108A20000846FCF729FF042205210120FDF7A6F8DE
:108A300021460520FCF7E0FE01210846FCF71CFF5B
:108A4000042205210120FDF799F821460520FCF7B5
:108A5000D3FE01210846FCF70FFF04220521012067
:108A6000FDF78CF821460520FCF7C6FE01210846DB
:108A7000FCF702FF022206210120FDF77FF82146C4
:108A80000620FCF7B9FE01210846FCF7F5FE02229C
:108A900011460120FDF772F806210220FCF704FFC1
:108AA0002046FCF781FE2046FCF77EFE2046FCF7C0
:108AB0007BFE01210846FCF7DFFE02221146012061
:108AC000FDF75CF806210220FCF7EEFE2046FCF7DD
:108AD0006BFE2046FCF768FE2046FCF765FE01228F
